:020000040800F2
:1000000048FC00205D010108875100088951000863
:100010008F5100088B5100088D5100089151000844
:100020009151000891510008915100089151000828
:100030009151000891510008E7C1000829CE00083D
:1000400089F7000893F700089DF70008A7F7000854
:10005000B1F70008BBF70008C5F70008DFFD00088E
:10006000CFF70008D9F70008E3F70008EDF700081C
:10007000F7F7000801F800080BF8000815F8000869
:100080001FF8000829F8000833F800083DF80008B8
:1000900047F8000851F800085BF8000865F8000808
:1000A0006FF8000879F8000883F800088DF8000858
:1000B00097F80008A1F80008ABF80008B5F80008A8
:1000C000BFF80008C9F80008D3F80008DDF80008F8
:1000D000E7F8000835FB000801FA0008F1F800080D
:1000E000FBF8000805F900080FF900089351000813
:1000F0009351000893510008935100089351000850
:10010000935100089351000819F9000823F90008D9
:100110002DF9000837F9000841F900084BF90008EB
:1001200055F900085FF9000869F9000873F900083B
:100130007DF9000887F9000891F900089BF900088B
:10014000A5F90008AFF90008B9F90008C3F90008DB
:100150007CB504000D006068DFF8841C0860DFF8DF
:10016000800C0068008801F021FCC0F3032080B2FD
:10017000616811EB8000DFF86C1C0860DFF8600C30
:100180000068008801F012FCC0F3032080B28000F8
:1001900000B2414209B2200001F0E0FD002802D186
:1001A0002089142803D2200001F042FE7FE22900BA
:1001B000DFF82C0C0068103002F0E4F900280FD1B1
:1001C0005FF0704001F003FC05005FF0604001F05B
:1001D000FEFBDFF80C1C096809692940814203D144
:1001E000200001F025FE62E2208900900623DFF85E
:1001F000F00B006810F11002DFF8E40B006810F15A
:100200000C01200002F00BFA002803D0200001F0BE
:100210000FFE4CE2DFF8CC0B0068808901F0C6FBD2
:1002200080B2000BC0B27FF0030101FB00F109B204
:10023000200001F093FD002803D0200001F0F8FD1C
:1002400035E2DFF8A00B0068008801F0AFFBDFF8B3
:10025000941B09680880DFF88C0B0068408801F067
:10026000A5FBDFF8801B09684880DFF8780B006881
:10027000406801F0ACFBDFF86C1B09684860DFF8F0
:10028000681B0860DFF85C0B0068806801F09FFB6A
:10029000DFF8501B09688860DFF8501B0860DFF842
:1002A000440B0068C08901F081FBDFF8381B096846
:1002B000C881DFF8300B0068808901F077FB10F00F
:1002C0003F00DFF82C1B0870DFF8240B00780321B7
:1002D000084201D0012000E0002021894018DFF809
:1002E000141B08800025DFF8100B066801E03500BC
:1002F000F668002E62D0307C002808D1DFF8FC3A86
:10030000B522DFF8FC1ADFF8FC0A02F02BFA307C89
:100310000A2808D1DFF8E43AB622DFF8EC1ADFF851
:10032000E40A02F01FFA307C012808D1DFF8CC3A49
:10033000B722DFF8D81ADFF8CC0A02F013FA308CB3
:10034000DFF8A01A096809888842D0D1308BDFF81D
:10035000941A096849888842C9D17068DFF8801A00
:100360000968C9688842C2D13068DFF8741A096820
:1003700009698842BBD1F068B04208D1DFF87C3A05
:10038000C022DFF88C1ADFF87C0A02F0EBF9002DAE
:1003900008D0F068E860DFF8600A0068F060DFF815
:1003A000580A0660F068B04208D1DFF8503AC62219
:1003B000DFF8601ADFF84C0A02F0D4F9002E62D19F
:1003C000DFF8540A066800E0F668002E2ED0307C74
:1003D0000A2808D0DFF8243AD022DFF8401ADFF8E4
:1003E000240A02F0BFF9308CDFF8F819096809888F
:1003F0008842E9D1308BDFF8EC19096849888842D6
:10040000E2D17068DFF8D8190968C9688842DBD181
:100410003068DFF8CC19096809698842D4D1300006
:1004200000F0EBF9200001F003FD40E10025DFF8CA
:10043000F009006801E00500C068002823D000280A
:1004400009D00168002906D00168DFF894291268F4
:1004500012699142EFD1018BDFF888291268528826
:100460009142E8D1002D08D0C168E960DFF8B019E9
:100470000968C160DFF8A819086000F019F92000C8
:1004800001F0D6FC13E1002E00F0E680DFF89409BD
:1004900000210160DFF88C0921898181DFF884095E
:1004A00061688160DFF87C094460DFF87809DFF873
:1004B000341909680161DFF8700900210160DFF873
:1004C0006C0900210170F06F002818D0D6F8840064
:1004D000002808D00023F26F31007069D6F88450EC
:1004E000A847050006E00025F06F002802D0F06F55
:1004F00001F09EFC6DB2002D2BD10020F067DFF8DB
:1005000030090660300000F09FF90500DFF820098F
:10051000002101607FF004006DB2854200F08D8003
:10052000DFF808090078000717D5D6F890000028F2
:1005300005D07FF005017069D6F890209047310012
:10054000DFF8B40802F03BFF3100022003F087F926
:1005500073E0200001F06CFCA9E0DFF8D00800781F
:10056000C00609D53100DFF8900802F028FF3100FD
:10057000022003F074F960E00025B6F86C00012851
:100580000DD3D6F88000002808D0B6F86C203100D2
:100590007069D6F880309847050000E00025DFF844
:1005A0008808006800282FD0DFF84408007800078A
:1005B00009D5DFF874080068407B50F00100DFF8CF
:1005C000681809684873D6F8840000280AD0002308
:1005D000DFF85408026831007069D6F88440A047FB
:1005E00005000AE00025DFF840080068002804D074
:1005F000DFF83408006801F01BFC6DB2002D03D059
:10060000DFF824080068F067DFF82008007880062B
:100610000DD5D6F88400002808D000230022310030
:100620007069D6F88440A047050000E000256DB24F
:10063000002D02D1300003F0CCFCDFF8E807406861
:10064000002834D0DFF8DC07406801F0F1FBDFF868
:10065000D407002141602AE0DFF88807006880891C
:1006600001F0A4F940071FD4DFF87807006800887C
:100670000190DFF87007006840880090DFF860079D
:10068000006810F10C03DFF85807006810F1100241
:10069000DFF854070068DFF85C1709880918DFF8ED
:1006A0004C07006803F050FE200001F0C1FB73BD51
:1006B00030B583B00400DFF838070078C00622D5D3
:1006C000DFF82007006800880190DFF8180700684D
:1006D00040880090DFF80807006810F10C03DFF88D
:1006E0000007006810F11002DFF8FC060068DFF870
:1006F000041709880918DFF8F4060068401C03F0A5
:1007000023FE00203EBDDFF8E80600788007F8D51C
:10071000607C02F0CDFD0500002D02D15FF0FF30BE
:10072000F0E7DFF8BC0600681030002801D1002097
:1007300003E0DFF8AC06006800692860208B28839E
:10074000DFF89C0600680C30002801D1002003E08F
:10075000DFF88C060068C0686860DFF8880600680B
:100760000088288403202874DFF87C060068401C79
:100770006862686AE862DFF86C060068C089A5F8FC
:100780005C00B5F85C00A5F85400DFF85C06006872
:10079000401E286660696861E069E861208940F26E
:1007A000991108402881DFF850060068E860DFF8FA
:1007B0004806056004F037F8280000F05FFF291DA7
:1007C000288F02F07FFE28870120019000200090F2
:1007D000122300220021280003F050F9040064B223
:1007E000002C06D00021280002F06DF8200040B255
:1007F00088E7280003F0EDFB84E710B50400DFF87C
:10080000E8050068DFF8EC1509880818616A401AE5
:10081000012807DBDFF8D0050068DFF8D815098864
:1008200008186062DFF8CC050088012808D394F826
:10083000220050F0020084F82200200003F0C9FBDF
:10084000200003F0C6FB10BD30B583B004000021CA
:100850000020DFF89C25127852073ED5207C022824
:1008600007D1DFF888050068A26D904212D10121FE
:1008700010E0DFF874050068626A801A002809D465
:10088000DFF864050068626A801A228D801A0128E8
:1008900000DA0121C9B200291DD0207C002809D12D
:1008A0000FF2C05340F211220FF2FC510FF28C50A4
:1008B00001F058FFDFF87405007850F00800DFF809
:1008C0006C15087094F8220010F0FE0084F82200E5
:1008D0007FF0050083E2002081E2DFF81405007854
:1008E000800710D5207C02280DD0207C03280AD058
:1008F00094F8220050F0020084F82200200003F057
:1009000068FB00206BE2DFF82C0500682063002004
:1009100084F89D00200000F0B1FE207C022814D055
:10092000C0F05C82042800F03281C0F0B28006285A
:1009300000F0AD81C0F03E81082800F0F481C0F0E5
:100940002681092800F0378248E2DFF8A404007805
:1009500010F01200122876D1A06F0069406801F0F3
:1009600036F8DFF888140968401C81426BD1B4F86E
:100970006E00401CA4F86E00DFF86C040068401C98
:100980006062606AE062DFF864040068E064DFF8D7
:1009900054040068C089A4F85C00DFF84C040068C7
:1009A000401E206604202074211D208F02F08AFD45
:1009B0002087208F0A214843A4F85400B4F852003D
:1009C000012803D1208F80B2400000E0208FA4F8DE
:1009D0005200B4F87000012809D20FF2884340F2A7
:1009E0004322DFF854140FF2544001F0BBFEB4F878
:1009F0007000401EA4F87000A06F0168A167A16F8D
:100A0000002903D15FF0FF31E18604E00021E18697
:100A1000002184F84A1002F0EAFBD4F8880000288C
:100A200006D0002221006069D4F88830984700E0A1
:100A3000002094F8220050F0020084F822002000E8
:100A400003F0C7FA24E0DFF8A8030078C0061FD53A
:100A5000DFF89003006800880190DFF888030068E1
:100A600040880090DFF87803006810F10C03DFF88D
:100A70007003006810F11002DFF86C030068DFF803
:100A8000741309880918DFF86403006803F05CFC3C
:100A9000A4E1DFF85C030078C0066AD5DFF84C03F8
:100AA0000068E16C401A401E002848D4DFF83C037F
:100AB0000068A16D401A012841DA04202074E06921
:100AC000002809D10FF29C334FF41A72DFF8A41BEF
:100AD0000FF2683001F046FEE069002805D00022E0
:100AE00021006069E369984700E0002040B20028D7
:100AF00006D00121200001F0E6FE7FF004006EE147
:100B0000B4F85250200000F0DFF9ADB2012D03D14E
:100B1000208F80B2400000E0208FA4F85200C3482C
:100B20000078800632D594F8220050F0020084F854
:100B30002200200003F04DFA0720207426E0A94887
:100B4000006800880190A748006840880090A44889
:100B5000006810F10C03A248006810F11002A248CE
:100B60000068A44909880918A048006803F0ECFB54
:100B70000CE09F480078800708D59B480068616AB0
:100B8000491E884202D1200003F071FC26E12000BA
:100B900000F09AF9A548007880060AD594F822005A
:100BA00050F0020084F82200200003F012FA07201F
:100BB000207413E1200000F087F99C48007880063B
:100BC00059D58B480078C00649D588480068A16D82
:100BD000884244D194F8220050F0020084F82200A8
:100BE000200003F0F6F9200002F0CCFB82480068F8
:100BF000A04205D180480068C0687F49086022E0B3
:100C0000DFF8280B7C490968016006E0DFF81C0B5F
:100C10000068C068DFF8141B0860DFF8100B00687C
:100C2000002810D0DFF8040B0068C0680028EDD061
:100C3000DFF8F80A0068C068A042E7D1DFF8EC0AE4
:100C40000068E168C1600020E0600A2020747248FA
:100C50000068E0607048046003F0E5FD16E094F879
:100C6000220050F0020084F82200200003F0B1F9C5
:100C7000082020740AE05E480078C00606D55B486C
:100C80000068A16D884201D106202074A6E02000F2
:100C900000F01AF965480078800643D594F82200E0
:100CA00050F0020084F82200200003F092F92000A6
:100CB00002F068FB50480068A04205D14E48006829
:100CC000C0684D49086022E0DFF8600A4A490968B7
:100CD000016006E0DFF8540A0068C068DFF84C1ACB
:100CE0000860DFF8480A0068002810D0DFF83C0AE6
:100CF0000068C0680028EDD0DFF8300A0068C068DE
:100D0000A042E7D1DFF8240A0068E168C160002052
:100D1000E0600A20207440480068E0603E480460BB
:100D200003F081FD5AE0200000F0CEF83048007852
:100D3000C0063FD52D480068A16D88423AD12000F9
:100D400002F020FB2C480068A04205D12A48006828
:100D5000C0682949086022E0DFF8D00926490968FF
:100D6000016006E0DFF8C4090068C068DFF8BC195C
:100D70000860DFF8B8090068002810D0DFF8AC0977
:100D80000068C0680028EDD0DFF8A0090068C068DE
:100D9000A042E7D1DFF894090068E168C160002053
:100DA000E0600A2020741C480068E0601A48046073
:100DB00003F039FD12E0200000F086F80C480078BE
:100DC000C0060AD509480068A16D884205D11748B8
:100DD000007850F0100015490870FFE700203EBD74
:100DE000F8EB0020F4EB0020FCEB002000EC0020EE
:100DF00043EC00202EEC0020E8EB0020640E0008FD
:100E0000FCFD00083C0E000824FE000850FE00080F
:100E100078FE0008A4FE0008ECEB0020D0FE0008DD
:100E2000E4EB002008EB002004EC002044EC002060
:100E300008EC0020DCEB002000FF00084173736524
:100E40007274696F6E2022257322206661696C6559
:100E500064206174206C696E6520256420696E20B1
:100E600025730A00443A5CB0D9B6C8D4C6CDACB23A
:100E7000BDC5CC5C6769746875625C777061393038
:100E8000302D636F6D5C636F6DB0E5B3CCD0F25CF9
:100E90006C7749505C7372635C636F72655C7463FA
:100EA000705F696E2E6300007463705F696E7075A9
:100EB000743A207063622D3E737461746520213D25
:100EC00020434C4F53454400F8B504000025DFF89B
:100ED00060080078C00640F10C82B4F85C00616ED6
:100EE0000818216EDFF84C281268891A00291AD4D4
:100EF000216EDFF840281268914206D1616EDFF85A
:100F000038281268891A00290DD4616EDFF8282864
:100F10001268914220D1B4F85C10DFF820281268E2
:100F2000D289914218D2DFF814180968C989A4F847
:100F30005C10DFF8001809682166DFF8FC17096803
:100F40006166B4F85C10012906D394F89C1001295D
:100F500002D3002184F89C10E16CDFF8DC271268D2
:100F600091425ED10021A4F86C10616EB4F85C204F
:100F70005118814240F05F8194F85000401C84F881
:100F8000500094F850000328C0F05581A06F00284D
:100F900000F0518194F82200400731D4200003F082
:100FA00066FAB4F85C00B4F85210884207D2B4F87C
:100FB0005C00022190FBF1F0A4F8540006E0B4F8C4
:100FC0005200022190FBF1F0A4F85400B4F8540050
:100FD000218FB0EB410F04DA208F80B24000A4F8DB
:100FE0005400B4F85400218F032202FB0100A4F83E
:100FF000520094F8220050F0040084F822001AE114
:10100000B4F85200B4F85210228F511889B28842B5
:1010100080F01181B4F85200218F0818A4F8520012
:1010200009E1DFF814070068E16C401A401E00284F
:1010300000F1C880DFF800070068A16D401A0128A0
:1010400080F2C08094F82200400709D594F822006D
:1010500010F0FB0084F82200B4F85400A4F8520009
:10106000002084F84A00B4F94400B4F9461011EBAA
:10107000E000A4F84800DFF8C0060068E16C401A00
:10108000A4F86C00B4F86E00B4F86C100818A4F85A
:101090006E00002084F85000DFF89C060068E064D1
:1010A000207C04285CD3B4F85200B4F85410884271
:1010B0000FD2B4F85200B4F85210228F511889B2EE
:1010C00088424DD2B4F85200218F0818A4F852007B
:1010D00046E0B4F85200218F228F5143B4F85220D9
:1010E00091FBF2F10818B4F8521080B2814237D265
:1010F000A4F8520034E0A66FA06F0068A067706883
:1011000000F0F4FEB4F8701080B2814209D2AFF260
:10111000AC2340F266320FF23861AFF2E02001F00A
:1011200021FBB4F87070706800F0E0FE381AA4F883
:101130007000300002F05BF8B4F8700000280FD0A7
:10114000A06F00280CD1606F002809D1AFF2EC230A
:101150004FF45B720FF22061AFF2203001F002FB1E
:10116000A06F002821D0A06F0069406800F02FFC1C
:101170000600A06F0069808900F018FCC00709D440
:10118000A06F0069808900F011FCC0F3400010F0EE
:10119000010000E00120A16F898940188019DFF863
:1011A00098150968401A0128A5DBA06F002803D113
:1011B0005FF0FF30E08601E00020E086002084F848
:1011C000340038E00020A4F86C0034E0666F606FF3
:1011D00000686067706800F089FEB4F8701080B233
:1011E000814209D2AFF2843340F28E320FF2605165
:1011F000AFF2B83001F0B6FAB4F87070706800F071
:1012000075FE381AA4F87000300001F0F0FFB4F851
:10121000700000280FD0A06F00280CD1606F00284C
:1012200009D1AFF2C03340F293320FF24C51AFF21A
:10123000F43001F097FA606F002828D0606F0069E1
:10124000406800F0C4FB0600606F0069808900F010
:10125000ADFBC00709D4606F0069808900F0A6FB70
:10126000C0F3400010F0010000E00120DFF8C814D6
:101270000968891B626F92898018081A002806D4B1
:10128000DFF8B4040068A16D401A01289EDBE06B12
:1012900000282ED0206CDFF8A0140968401A00281E
:1012A00027D5DFF89C040068E16B401A00B2B4F95E
:1012B0004410B0EBE100B4F844104118A4F8441015
:1012C00000B2002801D500B2404200B2B4F9461085
:1012D000B0EBA100B4F846104018A4F84600B4F9E9
:1012E0004400B4F9461011EBE000A4F848000020D7
:1012F000E063DFF8840300880128C0F0A081606A01
:10130000DFF830140968401A401E002800F191806F
:10131000606ADFF820140968401AD7490988401A22
:10132000401C012880F28580606ADFF80814096893
:10133000461ADFF810044768DFF808044068002800
:1013400009D1AFF2E0434FF47C720FF24C41AFF29F
:10135000145001F007FA47F6FF70864209DBAFF23E
:10136000FC4340F2F1320FF24041AFF2305001F055
:10137000F9F9DFF8D00340684089B04230DADFF88D
:10138000C40340680089B04209DAAFF2285340F242
:10139000F3320FF22441AFF25C5001F0E3F9DFF8D1
:1013A000A40340680089801B05E07989761A38819A
:1013B000002179813F687989B142F6DB714209B237
:1013C000380000F0CBFC00281DD0AFF268534FF47A
:1013D00080620FF2F431AFF29C5001F0C3F912E0D9
:1013E000714209B2DFF85C03406800F0B7FC0028E6
:1013F00009D0AFF2905340F205420FF2CC31AFF278
:10140000C45001F0AFF9DFF83C0379688160DFF880
:1014100034038089616AC74A1268891A401ADFF862
:1014200024138881606AC3490860C6490969486015
:101430000EE0C0480068616A401A002808D594F898
:10144000220050F0020084F82200200002F0C1FDCA
:10145000B8480068616A401A002800F1E680B54883
:101460000068616A401A218D401A401C012880F2F0
:10147000DC80606AAF490968884240F0CC80012571
:10148000B0480069808900F091FAC00709D4AD48DE
:101490000069808900F08AFAC0F3400010F0010072
:1014A00000E00120A7498989401873490880208DF0
:1014B0007149098888425DD2A2480069808900F09C
:1014C00075FAC00716D59F480069808900F06EFA4A
:1014D00006009C480069808900F068FA4FF6C071E8
:1014E000314010F03E00084380B200F059FA9549AF
:1014F000096988819348218D81819248006980899A
:1015000000F054FA800704D58E488089401E8D492A
:1015100088818C4881898B48406800F0A7FB894806
:101520000069808900F042FAC00709D48548006943
:10153000808900F03BFAC0F3400010F0010000E0A9
:1015400001208049898940184B4908807948006802
:10155000494909880818616A228D5118884209D0C2
:10156000AFF2007340F235420FF27021AFF23470E7
:1015700001F0F8F86F4800683F4909880818606270
:10158000208D3D490988884209D2AFF2287340F284
:1015900063420FF28021AFF25C7001F0E3F8208D1E
:1015A00035490988401A2085200001F0F6FA65487F
:1015B00040680089012806D3624840686249086093
:1015C0006048002141605F480069808900F0EEF9C1
:1015D000C00705D55D48007850F020005B490870D1
:1015E00094F82200C0070FD594F8220010F0FE00F6
:1015F00084F8220094F8220050F0020084F82200BF
:10160000200002F0E6FC05E094F8220050F0010012
:1016100084F822002BE094F8220050F0020084F8B5
:101620002200200002F0D5FC21E094F8220050F0C6
:10163000020084F82200200002F0CBFC17E03D48B5
:101640000068616A401A002808D43A480068616A54
:10165000401A218D401A401C012808DB94F8220012
:1016600050F0020084F82200200002F0B2FC2800B2
:10167000C0B2F2BD18FF00082EEC002038B50400FF
:101680002E48006800F214052C480068808900F09C
:101690008DF980B2000BC0B2062845D327480068F8
:1016A000808900F083F980B2000B401F8000002188
:1016B00000E0491C89B280B2814235D289B24A5DCC
:1016C000D2B2002A03D0022A02D0F2D321E02BE0CA
:1016D00089B24A195278042A04D180B289B20A1D0B
:1016E000904200DA20E089B24A19927889B24B1907
:1016F000DB7853EA022240F2B55392B29A4202D208
:1017000092B2002A02D140F2B452FFE72287091DAB
:10171000D0E789B24A195278002A05D00A0092B25D
:10172000521952785118C5E731BD0000F0EB002086
:1017300043EC0020FCEB002000EC0020F4EB002048
:10174000DCEB002008EB002004EC002044EC00203F
:101750007063622D3E736E645F71756575656C654F
:101760006E203E3D20706275665F636C656E286E0C
:101770006578742D3E7029007463705F72656365CF
:101780006976653A2076616C696420717565756566
:10179000206C656E67746800696E7365672E7020D3
:1017A000213D204E554C4C00696E73616E65206F73
:1017B00066667365742100007062756620746F6FD1
:1017C0002073686F72742100706275665F6865616E
:1017D000646572206661696C656400007463705FA3
:1017E000726563656976653A207365676D656E74C9
:1017F000206E6F74207472696D6D656420636F7202
:10180000726563746C7920746F207263765F776E93
:10181000640A00007463705F726563656976653A97
:10182000207463706C656E203E207263765F776E05
:10183000640A000080B500A900F007F8002801D074
:10184000009801E05FF0FF3002BD7FB50C0000AAF8
:10185000057803E01160121D401C0578B5F13001D8
:10186000C9B20A2901D3002098E000210A23EDB271
:10187000302D14D1401C0578EDB2782D02D0EDB298
:10188000582D03D11023401C057808E0082306E0FA
:10189000DBB2EDB2303D03FB0151401C0578B5F1E0
:1018A0003006F6B20A2EF3D3DBB2102B1ED1B5F1FF
:1018B0003006F6B20A2E09D3B5F16106F6B2062E4D
:1018C00004D3B5F14106F6B2062E0FD2B5F161068A
:1018D000F6B21A2E01D2612600E04126EDB20A3599
:1018E000AD1B55EA0111401C0578D8E7EDB22E2D4D
:1018F00004D103AB9A42ADD300204FE0EDB2002DEE
:1019000013D0EDB2202D10D0EDB20C2D0DD0EDB2D4
:101910000A2D0AD0EDB20D2D07D0EDB2092D04D05D
:10192000EDB20B2D01D0002038E000A8101A801075
:10193000401C002806D0022807D005D3042819D05F
:101940000CD324E0002029E021E0B1F1807F01D315
:10195000002023E0009851EA006118E0B1F5803FD3
:1019600001D300201AE00098019A120452EA0060A4
:1019700001430CE0FF2901D900200FE00098019AF3
:10198000120452EA0060029A50EA02200143002C3D
:1019900003D0080000F00FF82060012004B070BDF3
:1019A00080B2010A51EA002080B2704780B580B24F
:1019B000FFF7F6FF02BD10F47F41090251EA006112
:1019C000020A12F47F42114351EA1060704780B559
:1019D000FFF7F1FF02BD10B450F8041B81B102689B
:1019E0001218001D50F8043BDC0744BFA9F10104A4
:1019F000E31852F8044B43F8044B091FF9D1EBE705
:101A000010BC70472DE9F0410E0014000027C0B251
:101A1000002805D0022805D003D3032817D017E0EB
:101A2000143714370E37E4B2002C00F0D280022CA9
:101A300000F00081C0F0FE80032C40F00B810D20EF
:101A400001F0DFFE0500002D0DD10020BFE0EAE728
:101A50000FF28473B1220FF264710FF2387000F04C
:101A600081FE0020B3E02C7300202860BFB27819FB
:101A70001030C01C80088000686068680421B0FBDA
:101A8000F1F202FB1102002A08D00FF24C73C222BD
:101A90000FF288710FF2FC6000F064FE2E81B6B286
:101AA00040F2DC50BFB2F91C31F00301401A86420B
:101AB00001DA300006E040F2DC50F91C4FF6FC720F
:101AC0001140401A688105F2EC5069896A688918EA
:101AD000884208D20FF20073C8220FF270710FF221
:101AE000B46000F03FFE40F2DC50BFB2F91C31F0B0
:101AF0000301401A012808DA0FF2DC63CB220FF24F
:101B000080710FF2906000F02DFE0120E881A84660
:101B1000B6B26889361A2BE040F2DC50788117F1B2
:101B20001000786078680421B0FBF1F202FB11022A
:101B3000002A08D00FF2A063EA220FF28C710FF294
:101B4000546000F00FFE05F2EC5069896A6889184C
:101B5000884208D20FF28063EC220FF2F0610FF29C
:101B6000346000F0FFFD0120F8817889361AB8460C
:101B7000012E27DB0D2001F044FE0700002F04D1C9
:101B8000280000F055F9002021E03C730020787314
:101B900000203860C8F800704FF6FF70864208DBFE
:101BA0000FF23463E5220FF20C710FF2E85000F0EF
:101BB000D9FD3E81300040F2DC5180B28842ABD288
:101BC0003000ABE70120E881002068732800BDE801
:101BD000F08117F113004FF6FC710840B6B2F11C0A
:101BE00031F00301081880B203F0D2F80500002D8F
:101BF00001D10020EBE7BFB278191030C01C80087B
:101C0000800068602E816E81002028602C736868D7
:101C10000421B0FBF1F202FB1102002A09D00FF2FD
:101C2000B85340F205120FF2D0610FF2685000F085
:101C300099FDC7E70C2001F0E4FD0500002D01D15E
:101C40000020C4E7002068602E816E81002028609B
:101C50002C73B7E70FF280534FF48D720FF2C4610B
:101C60000FF2305000F07EFD0020B0E770B50400A8
:101C70000D00002C09D10FF260534FF49E720FF249
:101C8000C0610FF2105000F06DFD207B032812D0D0
:101C9000207B01280FD0207B00280CD0207B02283D
:101CA00009D00FF2345340F23D120FF2AC610FF243
:101CB000E44000F057FD2089ADB285424DD2ADB26F
:101CC00020892E1A1FE060892D1A4FF6FF70864278
:101CD00009DB0FF204534FF4AA720FF298610FF26E
:101CE000B44000F03FFD2089301820812468002C8A
:101CF00009D10FF2E4434FF4AC720FF28C610FF292
:101D0000944000F02FFD6089ADB2A842DBD3207B68
:101D1000002817D16089ADB2854213D06068001BDE
:101D2000291889B2200002F086FF0400002C09D196
:101D30000FF2A4434FF4B1720FF264610FF25440FA
:101D400000F010FD6581608920812068002802D0A4
:101D5000206800F06DF80020206070BD38B50400E8
:101D60000D00002C09D10FF2704340F28D120FF2DA
:101D70004C610FF2204000F0F5FC2DB2002D01D097
:101D8000002C01D1002044E02DB2002D12D52DB23F
:101D90006A42608992B290420BD20FF23C434FF4F8
:101DA000CA720FF224610FF2EC3000F0DBFC01206C
:101DB0002FE000E02A00207B616880B2002802D07A
:101DC00080B203280CD12DB268426268801860602E
:101DD000606814F11002904214D26160012018E092
:101DE00080B2022802D080B2012815D12DB2002D78
:101DF00010D5608992B290420CD32DB268426168CE
:101E00004018606060892818608120892818208126
:101E1000002032BD0120FCE70FF2BC3340F2C312B8
:101E20000FF2C4510FF26C3000F09CFC0120F0E77F
:101E300070B50400002C0DD1002C09D10FF298339D
:101E400040F2F9120FF274510FF2483000F08AFCA0
:101E500000204AE0207B002812D0207B01280FD0F0
:101E6000207B02280CD0207B032809D00FF2683396
:101E700040F202220FF280510FF2183000F072FC93
:101E8000002604E0200002F081FE761C2C00002CCD
:101E900029D0E089012809D20FF23C3340F2112207
:101EA0000FF26C510FF2EC2000F05CFCE089401E58
:101EB000E08180B2002814D12568207B80B20328FD
:101EC00004D121000D2001F0CAFCDEE780B2012818
:101ED00002D080B20228D5D121000C2001F0BFFC35
:101EE000D3E70024D3E73000C0B270BD002101E089
:101EF000491C00680028FBD10800C0B270470028C8
:101F000002D0C189491CC181704738B505000C0059
:101F1000002D01D0002C0AD10FF2BC2340F26A221E
:101F20000FF204510FF26C2000F01CFC28E004E0DA
:101F300028892189081828812D6828680028F7D168
:101F400028896989884209D00FF28C2340F27322D4
:101F50000FF20C510FF23C2000F004FC286800281E
:101F600009D00FF274234FF41D720FF224510FF2B7
:101F7000242000F0F7FB28892189081828812C608B
:101F800031BD10B50C002100FFF7BFFF2000FFF7A7
:101F9000B6FF10BD2DE9F04104000D00002600271A
:101FA000002C05D0002D03D02089298988420CD22D
:101FB0000FF2242340F2D9220FF2E4410FF2D410A1
:101FC00000F0D0FB7FF0090081E0002C09D10FF276
:101FD000082340F2DF220FF2F8410FF2B81000F0B0
:101FE000C1FB6089B6B2801B6989BFB2C91B884238
:101FF00003DB6889B0EB070802E06089B0EB0608F4
:102000001FFA88F84246BFB268683918B6B26068ED
:10201000301803F0B1F818EB060618EB07076089D3
:10202000B6B2B04209D20FF2B01340F2EB220FF277
:10203000B0410FF2601000F095FB6089B6B28642A5
:1020400001D1002624686889BFB2B84209D20FF2D4
:10205000881340F2F1220FF2A0410FF2381000F085
:1020600081FB6889BFB2874201D300272D68002D0C
:1020700013D06889298988420FD1286800280CD09C
:102080000FF2541340F2FA220FF288410FF20410BB
:1020900000F068FB7FF0080019E0002C13D0608985
:1020A000218988420FD1206800280CD00FF2281314
:1020B00040F2FF220FF25C410FF2D80000F052FB19
:1020C0007FF0080003E0002D7FF47FAF0020BDE823
:1020D000F0812DE9F84380460C0017000025B8F187
:1020E000000F0BD10FF2F00340F21A320FF2504101
:1020F0000FF2A00000F036FB002048E0002C0BD1CE
:102100000FF2D40340F21B320FF254410FF284005D
:1021100000F028FB00203AE00026B8F1000F01D0C3
:10212000002C01D1002032E01DE0B8F80A00B0EB2D
:102130000309BFB21FFA89F94F4500D2B9461FFA09
:1021400089F94A469BB2D8F804001918B6B230197A
:1021500003F012F819EB050519EB0606B7EB0907B2
:102160000023D8F80080BFB2002F0ED0B8F1000FC6
:102170000BD09BB2002BD8D0B8F80A009BB2834298
:10218000D3D3B8F80A001B1AEBE7280080B2BDE8E9
:10219000F2830000417373657274696F6E202225AB
:1021A0007322206661696C6564206174206C696EBD
:1021B0006520256420696E2025730A0070627566AB
:1021C0005F616C6C6F633A20626164207062756657
:1021D000206C617965720000443A5CB0D9B6C8D40D
:1021E000C6CDACB2BDC5CC5C6769746875625C77FE
:1021F00070613930302D636F6D5C636F6DB0E5B326
:10220000CCD0F25C6C7749505C7372635C636F7224
:10221000655C706275662E63000000007062756612
:102220005F616C6C6F633A207062756620702D3E42
:102230007061796C6F61642070726F7065726C7917
:1022400020616C69676E6564000000006368656307
:102250006B20702D3E7061796C6F6164202B207053
:102260002D3E6C656E20646F6573206E6F74206FF9
:10227000766572666C6F772070627566000000008C
:10228000504255465F504F4F4C5F42554653495A56
:1022900045206D7573742062652062696767657299
:1022A000207468616E204D454D5F414C49474E4D4D
:1022B000454E540072656D5F6C656E203C206D610B
:1022C000785F7531365F7400706275665F616C6C43
:1022D0006F633A207062756620712D3E7061796C73
:1022E0006F61642070726F7065726C7920616C69C7
:1022F000676E656400000000706275665F616C6CFB
:102300006F633A20706275662D3E7061796C6F6103
:10231000642070726F7065726C7920616C69676E91
:1023200065640000706275665F616C6C6F633A2073
:102330006572726F6E656F757320747970650000D9
:10234000706275665F7265616C6C6F633A207020B5
:10235000213D204E554C4C00706275665F72656180
:102360006C6C6F633A2073616E6520702D3E7479DA
:102370007065000067726F77203C206D61785F7533
:1023800031365F7400000000706275665F726561CF
:102390006C6C6F633A207120213D204E554C4C00EF
:1023A0006D656D5F7265616C6C6F632067697665E2
:1023B0002071203D3D204E554C4C00007020213DA9
:1023C000204E554C4C000000696E6372656D656E61
:1023D000745F6D61676E6974756465203C3D207043
:1023E0002D3E6C656E00000062616420706275664F
:1023F0002074797065000000706275665F667265B2
:10240000653A2073616E6520747970650000000084
:10241000706275665F667265653A20702D3E726502
:1024200066203E2030000000286820213D204E55C7
:102430004C4C2920262620287420213D204E554C26
:102440004C29202870726F6772616D6D65722076FD
:10245000696F6C6174657320415049290000000068
:10246000702D3E746F745F6C656E203D3D20702D45
:102470003E6C656E20286F66206C617374207062FC
:10248000756620696E20636861696E29000000002E
:10249000702D3E6E657874203D3D204E554C4C00AD
:1024A000706275665F636F70793A207461726765F8
:1024B00074206E6F742062696720656E6F7567683F
:1024C00020746F20686F6C6420736F757263650091
:1024D000705F746F20213D204E554C4C0000000071
:1024E0006F66667365745F746F203C3D20705F7427
:1024F0006F2D3E6C656E00006F66667365745F6677
:10250000726F6D203C3D20705F66726F6D2D3E6C6A
:10251000656E0000706275665F636F7079282920B0
:10252000646F6573206E6F7420616C6C6F772070C0
:1025300061636B657420717565756573210A0000B0
:10254000706275665F636F70795F706172746961E4
:102550006C3A20696E76616C696420627566000071
:10256000706275665F636F70795F706172746961C4
:102570006C3A20696E76616C696420646174617084
:102580007472000010B40268D343002B01D0002AFB
:1025900001D101201CE091F82A309B0701D40020D2
:1025A00016E04B689A4201D1002011E000688B6868
:1025B00018404B688C682340984208D1886832EAFA
:1025C00000008968C943884201D1012000E0002051
:1025D00010BC704710B5002208E003781B02401CB5
:1025E00004782343401C9BB29A18891E89B20229A1
:1025F000F3D289B2012903D3007803029BB29A185F
:1026000090B210EB1242100C0004002802D090B2DD
:1026100010EB1242100080B2FFF7C2F910BD2DE995
:10262000F04782460D0016001F00089C5FF000096D
:102630005FF000081EE0BAF80A10DAF80400FFF7AD
:10264000C9FF10EB09091FFA89F010EB1949BAF814
:102650000A00022190FBF1F202FB1102002A07D0CE
:10266000D8F101085FFA89F0C9F3072151EA00297E
:10267000DAF800A0BAF1000FDDD15FFA88F8B8F1FE
:10268000000F05D05FFA89F0C9F3072151EA00294C
:10269000286880B210EB0909286819EB10493068E6
:1026A00080B210EB0909306819EB1049FFB238000D
:1026B00080B2FFF775F910EB0909200080B2FFF72F
:1026C0006FF910EB09091FFA89F010EB19491FFA8D
:1026D00089F010EB19497FEA090080B2BDE8F08764
:1026E00080B589B2FFF776FFC04380B202BD70B5F6
:1026F00005000026002417E069896868FFF76AFF73
:102700008619B0B210EB16466889022190FBF1F2EF
:1027100002FB1102002A06D0D4F10104F0B2C6F384
:10272000072151EA00262D68002DE5D1E4B2002CE6
:1027300004D0F0B2C6F3072151EA0026F04380B27C
:1027400070BD50F8041B61B150F8042BD30744BF8F
:10275000A9F101039A18002342F8043B091FFAD19A
:10276000EFE770470EB400B582B003A9009100AB4B
:1027700002460121034878440A3002F00BFD06BCF2
:102780005DF810FBB7D9000080B500F0ECFCDFF875
:10279000000D0078401CDFF8F81C0870C00701D558
:1027A00000F025FB01BD38B50400207C00280AD0CC
:1027B000012842D002284CD0032856D004285FD0EC
:1027C000072868D072E00025DFF8AC0C0068A04252
:1027D00007D1DFF8A40C0068C068DFF89C1C086013
:1027E00023E0DFF8B00CDFF8901C0968016006E018
:1027F000DFF8A00C0068C068DFF8981C0860DFF8FC
:10280000940C0068002810D0DFF8880C0068C068BD
:102810000028EDD0DFF87C0C0068C068A042E7D14A
:10282000DFF8700C0068E168C1600020E060210002
:10283000022001F014F800243AE000252100DFF81E
:10284000580C00F0BCFD2100032001F008F8002422
:102850002EE000252100DFF8440C00F0B0FD21003F
:10286000022000F0FCFF002422E00121200001F002
:10287000DAF805006DB2002D01D10520207417E0B3
:102880000121200001F0CFF805006DB2002D01D12B
:10289000052020740CE00121200001F0C4F805009F
:1028A0006DB2002D01D10920207401E00025002423
:1028B000002C05D06DB2002D02D1200001F089FB63
:1028C000280040B232BD2DE9F04F85B004000D0064
:1028D000207C0A2809D12100DFF8C40B00F06FFD2D
:1028E0002100022000F0BBFF42E0A66D676A002CC9
:1028F00001D1002000E020680290201D002801D1B5
:10290000002000E060680390B4F81880B4F82090CC
:10291000D4F890A0D4F814B02100DFF8800B00F0B8
:102920004EFDA06F002802D0A06F00F053FC606F36
:10293000002802D0606F00F04DFC2100022000F062
:102940008EFF5046002803D07FF004015846D04740
:10295000002D0DD01FFA89F9CDF804901FFA88F8E0
:10296000CDF8008003AB02AA3900300001F0ECFC86
:1029700005B0BDE8F08F70B504000D001600207C96
:1029800000280CD00FF6B43340F20B120FF684314E
:102990000FF65830FFF7E6FE7FF00C0080E0B6B28D
:1029A000002E02D100F045F90600DFF8EC0A0068BD
:1029B00000E0C068002814D0018BB6B2B142F8D153
:1029C00000280BD00168002908D0002D06D0296806
:1029D000002903D001682A689142EAD17FF00A00F9
:1029E0005EE0DFF8B80A006800E0C068002814D094
:1029F000018BB6B2B142F8D100280BD00168002992
:102A000008D0002D06D02968002903D001682A6863
:102A10009142EAD17FF00A0042E0DFF85C0A0068E8
:102A200000E0C068002814D0018BB6B2B142F8D1E2
:102A300000280BD00168002908D0002D06D0296895
:102A4000002903D001682A689142EAD17FF00A0088
:102A500026E0DFF84C0A006800E0C06800280AD0D1
:102A6000018BB6B2B142F8D101682A689142F4D123
:102A70007FF00A0014E0002D07D02868002804D059
:102A800020002900042203F0BBFB2683DFF8E809BD
:102A90000068E060DFF8E009046001F0C4FE002097
:102AA00070BD7FF00400704738B50400207C00281A
:102AB0000BD00FF688234FF4B3720FF6C0210FF638
:102AC0002C20FFF74FFE002066E0207C012801D17A
:102AD000200061E0032000F094FE0500002D01D1EC
:102AE000002059E060696861208B288301202874E8
:102AF00020892881288950F002002881E07AE87234
:102B0000A07AA872002C01D1002000E02068286083
:102B1000DFF864090068A04207D1DFF85C090068AB
:102B2000C068DFF85419086023E0DFF86809DFF8AF
:102B300048190968016006E0DFF858090068C068B4
:102B4000DFF850190860DFF84C090068002810D041
:102B5000DFF840090068C0680028EDD0DFF83409CC
:102B60000068C068A042E7D1DFF828090068E16882
:102B7000C1600020E0602100022000F070FEDFF85C
:102B80002409E861DFF810090068E860DFF8080947
:102B9000056001F048FE280032BD416A028D5118DF
:102BA000C26A8A1A038FD21A002A04D4028D42857F
:102BB000C06A081A0CE0416AC26A891A012902DB5C
:102BC0000021418503E0C16A426A891A41850020DB
:102BD000704738B504000D004FF6FF70218D401A84
:102BE000ADB2A84209DA0FF6541340F2AD120FF657
:102BF000B0110FF6F800FFF7B5FD208D28182085DD
:102C0000208D40F66931884202D340F66830208535
:102C10002000FFF7C2FF40F2DA21884208DB94F877
:102C2000220050F0020084F82200200001F0D1F9C7
:102C300031BD05E0018BDFF870281288914213D175
:102C4000DFF864080088401CDFF85C18088080B258
:102C5000B0F5004F04D3DFF850084FF480510180E5
:102C6000DFF83808006800E0C0680028E2D1DFF82B
:102C70003008006800E0C068002806D0018BDFF84B
:102C8000282812889142F6D1DAE7DFF80C080068AC
:102C900000E0C068002806D0018BDFF80C281288FD
:102CA0009142F6D1CCE7DFF8000800887047F0B514
:102CB00083B004000D0017001E00207C00280CD0FB
:102CC0000FF6780340F2FB120FF6F8010FF61C0026
:102CD000FFF748FD7FF00C0088E0002D41D0201D5B
:102CE0002900042203F08CFA2784208B002802D1CB
:102CF000FFF79FFF208300F0C1FB00216162A06508
:102D0000411EE164401EA06640F66830208540F612
:102D100068306085606AE06240F66830A4F85C0064
:102D20004FF4067020872900208F00F0CBFB20870E
:102D30000120A4F85200208F0A214843A4F854002F
:102D400002202074C4F88860DFF82C070068A042D5
:102D50000AD1DFF824070068C068DFF81C17086094
:102D600026E07FF0080041E0DFF82807DFF80817C9
:102D70000968016006E0DFF81C070068C068DFF83A
:102D800014170860DFF80C070068002810D0DFF87F
:102D900004070068C0680028EDD0DFF8F806006876
:102DA000C068A042E7D1DFF8EC060068E168C160C6
:102DB0000020E060DFF8E4060068E060DFF8DC0691
:102DC000046001F030FD01200190002000900223FA
:102DD00000220021200000F051FE05006DB2002D00
:102DE00002D1200001F0F5F8280040B2FEBD70B518
:102DF0000020DFF8B8160968491CDFF8B02611601A
:102E00000024DFF898160D6822E0DFF890060068CD
:102E1000A84209D00FF2247340F2D6220FF68C019B
:102E20000FF2C860FFF79EFCE868DFF870160860D4
:102E3000D5F89000002805D07FF004016869D5F826
:102E400090209047EE682900022000F008FD350030
:102E5000002D00F03481287C002809D10FF2DC63BA
:102E600040F247220FF290710FF28060FFF77AFC78
:102E7000287C012809D10FF2C4634FF412720FF2BB
:102E8000A4710FF26860FFF76DFC287C0A2809D155
:102E90000FF2A86340F249220FF2B4710FF24C60B6
:102EA000FFF760FC0026287C022805D195F84A002F
:102EB000062801D1761C6BE095F84A000C2801D158
:102EC000761C65E095F89C0001281FD3D5F8980082
:102ED000401CC5F89800D5F8980095F89C100FF69E
:102EE000BC02891811F8011C884251D30020C5F892
:102EF000980095F89C00072804D295F89C00401C87
:102F000085F89C00280001F015FB41E0B5F936007A
:102F1000002802D4E88E401CE886A86F002837D02D
:102F2000B5F93600B5F94810884231DB287C022813
:102F30000DD0B5F94400B5F9461011EBE00095F855
:102F40004A100FF6480289568840A5F8480000202C
:102F5000E886B5F85200B5F85C10884202D2B5F8A0
:102F6000520001E0B5F85C0080B24008A5F85400BA
:102F7000B5F85400298F884204D2288F80B24000CF
:102F8000A5F85400288FA5F85200280001F055FA42
:102F9000287C062807D1DFF814050068296B401A41
:102FA000292800D3761C287A000735D5287C0428E8
:102FB00002D0287C07282FD1D5F89400DFF8F01430
:102FC00008184FF4FA71B0FBF1F0DFF8E01409686B
:102FD0002A6B891A884204D201212800FFF773FC6A
:102FE0001AE0D5F8940095F89D10DFF8C82402FB8C
:102FF00001004FF4FA71B0FBF1F0DFF8B01409688A
:103000002A6B891A884207D2280001F05AFA95F8EB
:103010009D00401C85F89D00287C032807D1DFF81F
:103020008C040068296B401A292800D3761C287C60
:10303000092807D1DFF874040068296B401AF128C9
:1030400000D3761CF6B2002E17D0280000F09AF9B3
:10305000002C3FF4DAAEDFF844040068854209D161
:103060000FF2D84340F2D2220FF214610FF27C40EB
:10307000FFF778FBE868E060DAE695F83400401C7A
:1030800085F8340095F8340095F83510884213D34C
:10309000002085F83400D5F88C00002805D02900E0
:1030A0006869D5F88C20904700E0002040B20028E5
:1030B00002D1280000F08DFF2C00ED68C8E6002446
:1030C000DFF8DC03056818E0DFF8D4030068A842E5
:1030D00009D00FF2684340F209320FF254610FF247
:1030E0000C40FFF73FFBE868DFF8B4130860EE68B8
:1030F0002900022000F0B3FB3500002D32D0287CDF
:103100000A2809D00FF2344340F2F6220FF2C851D8
:103110000FF2D830FFF726FB0026DFF89003006897
:10312000296B401AF12800D3761CF6B2002E16D077
:10313000280000F027F9002CC6D0DFF864030068EF
:10314000854209D10FF2F43340F205320FF2B85143
:103150000FF29830FFF706FBE868E060C7E72C0045
:10316000ED68CAE770BD38B5CC4804681FE000259B
:10317000E06F002802D0E06FFEF75AFE6DB2002D1E
:1031800001D10020E06794F82200C0070ED594F822
:10319000220050F0020084F82200200000F019FF05
:1031A00094F8220010F0FC0084F82200E468002C5F
:1031B0000FD0E06F0028E6D0D4F884000028D6D0E5
:1031C0000023E26F21006069D4F88450A84705000D
:1031D000D4E731BD38B5002404E0056800F007F8F5
:1031E000041928000028F8D12000C0B232BD38B53B
:1031F00004000025002C0AD06068002803D0606815
:10320000FEF716FE05002100042000F028FB280030
:10321000C0B232BD80B5002A04D01000FEF708FE0F
:10322000002002BD5BB2002BFAD10800FFF7BBFA09
:10323000F7E770B57F24002300229849096814E05D
:103240004D7CC0B2A8420FD34D7CE4B2AC420BD34C
:10325000964D2D680E6BAD1B9D4205D3934A1268A7
:103260000B6BD31A0A004C7CC9680029E8D1002AEC
:1032700003D001211000FFF726FB70BD10B500221E
:103280000020874909680BE0884B1B680C6B1B1BEF
:10329000934204D3854800680A6B821A0800C96803
:1032A0000029F1D1002802D00121FFF70CFB10BD4D
:1032B00038B50500022000F0A4FA0400002C0FD15C
:1032C000FFF7DCFF022000F09CFA0400002C07D17D
:1032D0002800C0B2FFF7ADFF022000F092FA040010
:1032E000002C3ED0A0220021200002F0C1FF40208F
:1032F000607441F2D060A4F86E000020A4F8700061
:1033000040F66830208540F6683060850020A07265
:10331000FF20E0724FF4067020870620A4F84800D2
:103320000020A4F844000620A4F846005FF0FF3017
:10333000E0860120A4F8520000F0A0F86066A065C5
:10334000E064A066594800682063002084F83400D7
:103350005948C4F884005948C4F89400002084F8FF
:103360009D00200032BD80B54020FFF7A1FF02BDC7
:1033700041617047C0F884107047C0F890107047E2
:10338000C161704710B50400207C002816D0207C55
:103390000A2813D0207C012810D0E06F002804D028
:1033A000E06FFEF745FD0020E067606FFFF712FF5A
:1033B000A06FFFF70FFF00206067A06710BD10B57A
:1033C0000C000168A14203D10168C96801601AE0DC
:1033D00030490068086004E02E480068C0682D4944
:1033E00008602C48006800280DD02A480068C06892
:1033F0000028F1D027480068C068A042ECD12548D9
:103400000068E168C1600020E0602000FFF7BAFFBB
:10341000207C0A280FD0207C01280CD094F82200B0
:10342000C00708D594F8220050F0020084F822006A
:10343000200000F0CEFD207C012819D0606F00280C
:1034400009D00FF2F80340F2D9420FF20C310FF21B
:103450009C00FFF787F9A06F002809D00FF2DC036A
:1034600040F2DA420FF208310FF28000FFF77AF9EA
:103470000020207410BD0000E0EB00201048006820
:103480000A49096808180E4908600D480068704725
:1034900042EC0020F0EB0020E4EB0020E8EB002001
:1034A000ECEB0020A32A0008E0000020DCEB002069
:1034B000B84C0A00F82401001532000800DD6D0048
:1034C000DC00002010B50400080002F0DBFE00283C
:1034D00009D0018D002906D0008D2838A4B280B211
:1034E000844200D30400200080B210BD4173736594
:1034F0007274696F6E2022257322206661696C6583
:1035000064206174206C696E6520256420696E20DA
:1035100025730A007463705F62696E643A206361A8
:103520006E206F6E6C792062696E6420696E207304
:103530007461746520434C4F53454400443A5CB079
:10354000D9B6C8D4C6CDACB2BDC5CC5C6769746809
:1035500075625C7770613930302D636F6D5C636FBD
:103560006DB0E5B3CCD0F25C6C7749505C7372639C
:103570005C636F72655C7463702E63007463705F6C
:103580006C697374656E3A2070636220616C726559
:1035900061647920636F6E6E65637465640000001A
:1035A0007463705F7265637665643A206C656E2043
:1035B000776F756C642077726170207263765F77C5
:1035C0006E640A007463705F636F6E6E6563743A55
:1035D0002063616E206F6E6C7920636F6E6E656321
:1035E0007465642066726F6D207374617465204326
:1035F0004C4F5345440000007463705F736C6F77E9
:10360000746D723A20616374697665207063622D0F
:103610003E737461746520213D20434C4F534544F3
:103620000A0000007463705F736C6F77746D723A98
:1036300020616374697665207063622D3E737461E6
:10364000746520213D204C495354454E0A0000002A
:103650007463705F736C6F77746D723A206163741A
:10366000697665207063622D3E73746174652021F4
:103670003D2054494D452D574149540A0000000052
:103680007463705F736C6F77746D723A206D6964E8
:10369000646C652074637020213D207463705F61E9
:1036A00063746976655F7063627300007463705F52
:1036B000736C6F77746D723A2066697273742070E0
:1036C0006362203D3D207463705F61637469766559
:1036D0005F706362730000007463705F736C6F7778
:1036E000746D723A2054494D452D5741495420700C
:1036F00063622D3E7374617465203D3D2054494DD5
:10370000452D5741495400007463705F736C6F77A7
:10371000746D723A206D6964646C65207463702006
:10372000213D207463705F74775F70636273000083
:103730007463705F736C6F77746D723A2066697230
:10374000737420706362203D3D207463705F7477F2
:103750005F70636273000000756E73656E74207332
:1037600065676D656E7473206C65616B696E67006B
:10377000756E61636B6564207365676D656E7473E8
:10378000206C65616B696E67000000000102030434
:1037900005060707070707070700000003060C18C0
:1037A00030607800002100E0491C89B20E29FBD36B
:1037B0003B4880088000002118E089B2394B53F85B
:1037C0002130036089B2374B43F8210089B20FF2F0
:1037D000A81333F811301818521C89B20FF2B41321
:1037E00033F8113092B29A42E7D3491C89B20E29BC
:1037F00006D289B22B4A002342F821300022ECE79E
:10380000704710B5C0B20E280BD30FF2E40340F29C
:103810003B120FF2BC010FF29000FEF7A3FF002055
:103820001CE0C0B21F4951F82040002C15D0C0B296
:103830001C49226841F820200420B4FBF0F101FB70
:103840001041002909D00FF2A8034FF4A6720FF21D
:10385000E4010FF25400FEF785FF200010BD38B5DB
:1038600004000D00002D19D00420B5FBF0F101FB80
:103870001051002909D00FF278034FF4B4720FF2FF
:10388000D8010FF22400FEF76DFFE4B2054850F8AE
:1038900024002860E4B2034840F8245031BD000001
:1038A000E7000020E0E80020417373657274696FDF
:1038B0006E2022257322206661696C656420617424
:1038C000206C696E6520256420696E2025730A00CE
:1038D0006D656D705F6D616C6C6F633A20747970AB
:1038E00065203C204D454D505F4D41580000000083
:1038F000443A5CB0D9B6C8D4C6CDACB2BDC5CC5C78
:103900006769746875625C7770613930302D636FF8
:103910006D5C636F6DB0E5B3CCD0F25C6C774950F1
:103920005C7372635C636F72655C6D656D702E6352
:10393000000000006D656D705F6D616C6C6F633AC7
:10394000206D656D702070726F7065726C7920618A
:103950006C69676E656400006D656D705F667265A9
:10396000653A206D656D2070726F7065726C79209C
:10397000616C69676E6564001C002000A000200077
:103980001400200010002C00140014000800100087
:103990001000EC05040006000A0006000C000500FB
:1039A00002000400080008001E0008000A000A00C7
:1039B000F8B5040016001F004D68208BFDF7F0FFDE
:1039C0002880208CFDF7ECFF68806F60606AFDF74F
:1039D000F2FFA860A889FDF7E9FF4FF6C071084023
:1039E00050F0100080B2FDF7DBFFA881608DFDF77D
:1039F000D7FFE88100206882A889FDF7D7FF04215E
:103A000096FBF1F1491D10F03F0050EA013080B201
:103A1000FDF7C6FFA88100202882606A618D081822
:103A2000E0622800F2BD00B583B0002201920122BD
:103A300000920B00DBB20022002100F01FF80EBD47
:103A40001CB5047C042C08D0047C072C05D0047C15
:103A5000022C02D0047C032C0DD192B2012A08D38F
:103A600000240194DBB20093002392B200F006F828
:103A700003E0002001E07FF0070016BD2DE9FE4FB6
:103A800082B00600BDF80C00002814D19DF83C005F
:103A9000002810D19DF81000032108420BD10FF629
:103AA0009433A9220FF638310FF60C30FEF75AFE88
:103AB0007FF0090003E1BDF80C0000280ED1029848
:103AC00000280BD00FF66C33AC220FF6AC310FF69A
:103AD000E820FEF747FE7FF00900F0E0B6F86E0040
:103AE000BDF80C10884208D296F8220050F08000F1
:103AF00086F822005FF0FF30E1E0BDF80C7002981C
:103B000000909DF83C00C00701D5042000E0002093
:103B10009DF83C10890701D50C2100E0002111EB34
:103B20000009B06E0190B6F870801FFA88F8B8F1FD
:103B3000180F05D24FF6FD701FFA88F8804508D39C
:103B400096F8220050F0800086F822005FF0FF30E7
:103B5000B5E01FFA88F8B8F1000F0FD0B06F002859
:103B60000BD1706F002808D10FF6C823CB220FF6B7
:103B700048310FF64420FEF7F5FD0EE0B06F002847
:103B800002D1706F002808D00FF6A823CE220FF6BE
:103B900064310FF62420FEF7E5FD0025AB46AA466A
:103BA00000244DE0DBF804004068CBF81000308BB7
:103BB000FDF7F6FEDBF810100880308CFDF7F0FE04
:103BC000DBF8101048800198FDF7F5FEDBF81010C7
:103BD0004860DBF8100000214182DBF8100080898A
:103BE000FDF7E4FE4FF6C07108409DF81010084341
:103BF00080B2FDF7D5FEDBF8101088819DF83C00FF
:103C00008BF80E00DBF810008089FDF7CFFE5FFA1D
:103C100089F9042199FBF1F1491D10F03F0050EAA8
:103C2000013080B2FDF7BCFEDBF8101088813F1B2D
:103C30000198A4B220180190A4B200982018009016
:103C4000BAF1000F03D0BFB2012FC0F0DD80308F7A
:103C50005FFA89F9B0EB0900BFB2B84205DA308FDC
:103C60005FFA89F9B0EB090400E03C000420FFF79B
:103C7000C8FD8346BBF1000F24D196F8220050F016
:103C8000800086F82200BAF1000F02D05046FFF7FC
:103C9000A1FAB6F8700000280FD0B06F00280CD140
:103CA000706F002809D10FF68C134FF4D3720FF602
:103CB000E4210FF60410FEF755FD5FF0FF3005B06C
:103CC000BDE8F08F0020CBF800000020CBF8040006
:103CD000BAF1000F01D1DA460CE0002D08D10FF641
:103CE0005413EB220FF640210FF6CC00FEF73AFDFD
:103CF000C5F800B05D469DF83800C0073AD50022EF
:103D00005FFA89F919EB040189B20020FDF77AFE08
:103D1000CBF804000028B0D0DBF804004089A4B23E
:103D20005FFA89F919EB0401884208DA0FF60413E7
:103D3000FA220FF604210FF68000FEF713FDDBF8E0
:103D40000400FEF7D3F810EB0808029800280BD007
:103D5000A4B2220000995FFA89F9DBF804004068F8
:103D600019EB000001F008FADBF804004068CBF81A
:103D7000080032E000225FFA89F9494689B2002042
:103D8000FDF740FECBF8040000283FF476AFDBF8E7
:103D90000400FEF7ABF810EB0808BFB2012F1CD3EC
:103DA0000122210089B20320FDF72CFE002807D153
:103DB000DBF80400FEF73CF80020CBF804005CE7D9
:103DC00018F10108009941600099CBF80810010032
:103DD000DBF80400FEF799F800201FFA88F8B8F124
:103DE000190F05D24FF6FD701FFA88F8804500D3F1
:103DF00043E7ABF80C401421DBF80400FDF7AEFFFD
:103E000000283FF4CFAE38E7706F002801D10025BD
:103E100005E0756F00E02D6828680028FBD1002DB3
:103E20007DD028698089FDF7C1FDC00708D42869C5
:103E30008089FDF7BBFDC0F3400010F0010000E0F9
:103E40000120A9894018002869D028698089FDF7D8
:103E5000ADFD0321084262D19DF810000321084204
:103E60005DD1308FA989BAF80C205118884256DBF1
:103E7000A87B9AF80E10884251D15FFA89F919F19E
:103E80001400414209B2DAF80400FDF767FF002888
:103E90000AD00FF2A0734FF4B1720FF6D0010FF2F7
:103EA0001870FEF75FFCE8E6DAF8040040890028A5
:103EB0000CD1DAF80400DAF804100968CAF8041022
:103EC00000210160B8F10108FDF7B2FFDAF8040043
:103ED000002804D0DAF804004089012809D20FF242
:103EE00054734FF4B7720FF698010FF2CC60FEF7DF
:103EF00039FCDAF804106868FEF707F8A889BAF800
:103F00000C100818A881DAF800002860D34501D108
:103F1000AB46AC8951460420FFF7A1FC06E0002D1A
:103F200002D1C6F874A001E0C5F800A09DF8100009
:103F30000321084204D0BDF80C00401CADF80C0071
:103F40009DF81000C00705D596F8220050F020001B
:103F500086F82200B06EBDF80C100818B066B6F8EE
:103F60006E00BDF80C10401AA6F86E00A6F870801E
:103F7000B6F8700000280FD0B06F00280CD1706F19
:103F8000002809D10FF2AC6340F293120FF604013E
:103F90000FF22460FEF7E6FBBBF1000F17D0A4B2CE
:103FA000012C14D3DBF81000002810D09DF8380045
:103FB00080070CD4DBF810008089FDF7F7FC50F087
:103FC000080080B2FDF7ECFCDBF8101088810020BF
:103FD00075E62DE9F04383B004005FF00008D74890
:103FE0000068A04201D10020B8E0B4F85C00B4F849
:103FF0005210884202D2B4F85C5001E0B4F852503A
:10400000676FA66F002E04D000E036683068002885
:10401000FBD194F82200800748D5002F09D03869D9
:104020004068FDF7D4FCE16C401AB9890818854254
:104030003CD200225FFA88F818F1140189B20120FD
:10404000FDF7E0FC0500002D02D17FF0010085E0C6
:1040500094F8220010F0FC0084F82200A06DFDF717
:10406000AAFC03005FFA88F8424629002000FFF707
:104070009FFC0600288900900623221D21002800AD
:10408000FEF7CDFA308206200190A07A0090E37A04
:10409000221D2100280002F0E3FA2800FDF7C8FEE7
:1040A00000205BE03800FFF7A2F8676F002F36D0E2
:1040B00038694068FDF78BFCE16C401AB989081833
:1040C00085422CD338698089FDF770FC400709D5FB
:1040D0000FF2605340F22D220FF2D8610FF2D84058
:1040E000FEF740FBA06F00280FD094F82200400696
:1040F0000BD4606F00280AD0606F0068002804D1DC
:10410000606F8089218F884201D3012000E0002068
:10411000002825D194F82200A021084220D1002FA8
:1041200015D094F89C00002811D138694068FDF73B
:104130004EFCE16C401AB9890818B4F85C10814251
:1041400005D20020C4F89800012084F89C0094F85F
:10415000220010F07F0084F822000020BDE8FE83DA
:1041600038686067207C022810D038698089FDF7A4
:104170001DFC50F0100080B2FDF712FC39698881F7
:1041800094F8220010F0FC0084F82200210038008E
:1041900000F069F838694068FDF719FC8046386915
:1041A0008089FDF703FCC00708D438698089FDF7D2
:1041B000FDFBC0F3400010F0010000E00120B989D0
:1041C000401810EB0800A16D091A002900D5A06560
:1041D00038698089FDF7EAFBC00708D4386980890F
:1041E000FDF7E4FBC0F3400010F0010000E0012007
:1041F000B98940180128FFF655AF00203860A06F3C
:10420000002802D1A7673E004FE738694068FDF7F4
:10421000DEFB804630694068FDF7D9FBB8EB000053
:1042200000281DD504F2780801E0D8F80080D8F8FD
:10423000000000280ED0D8F8000000694068FDF7A3
:10424000C6FB814638694068FDF7C1FBB9EB000049
:104250000028EAD4D8F800003860C8F8007024E7D5
:104260003760366821E77CB504000D00686AFDF709
:10427000A2FB21698860688DFDF792FB2169C881E6
:10428000686A698D0818E862206900F21406A07B4C
:10429000C00704D52A48FDF78EFB3060361D002D7F
:1042A00002D0286800280BD1281D01F0EBFF002860
:1042B00042D0011D002901D1002000E040682860A3
:1042C000B5F936005FF0FF31884201D10020E88661
:1042D000E86B002807D11B480068E8632069406844
:1042E000FDF775FB2864206961684968401A6168B8
:1042F0004989091A6268518161680989081A6168E7
:10430000088160682169416020690021018260683C
:104310000089009006232A1D29006068FEF77FF9B6
:104320002169088206200190A87A0090EB7A2A1D64
:104330002900606802F094F973BD000008EC0020C9
:10434000B4050402DCEB00202DE9F04F83B0824677
:104350008B4616001F000C9C0D9D0022142101208D
:10436000FDF750FB8046B8F1000F64D0B8F80A00A2
:10437000142809D20FF2BC2340F2F6220FF24C416E
:104380000FF23420FEF7EEF9D8F80490200080B246
:10439000FDF706FBA9F80000280080B2FDF700FB3E
:1043A000A9F802005046FDF706FBC9F8040058467C
:1043B000FDF701FBC9F80800B9F80C00FDF7F6FAA3
:1043C0004FF6C071084050F0140080B2FDF7E8FAD3
:1043D000A9F80C0040F66830FDF7E2FAA9F80E00E3
:1043E0000020A9F81200B9F80C00FDF7DFFA10F070
:1043F0003F0050F4A04080B2FDF7D2FAA9F80C00BB
:104400000020A9F81000B8F80800009006233A0030
:1044100031004046FEF703F9A9F81000062001908C
:1044200000200090FF233A003100404602F018F9C6
:104430004046FDF7FDFCBDE8F78F80B5816F002990
:1044400014D0816F00E009680A68002AFBD1426F2E
:104450000A60816F41670021816790F84A10491C0A
:1044600080F84A100021C163FFF7B3FD01BDF8B524
:104470000400A06F002823D0A56F2868A06704F26D
:10448000740600E03668306800280CD03068006997
:104490004068FDF79CFA070028694068FDF797FA25
:1044A000381A0028EED430682860356094F84A0045
:1044B000401C84F84A000020E0632000FFF789FDDB
:1044C000F1BD7CB50400002214210120FDF79AFA09
:1044D0000500002D2DD06889142809D20FF254133D
:1044E00040F277320FF2E4210FF2CC00FEF73AF9F6
:1044F000A06D401EFDF75FFA030000222900200096
:10450000FFF756FA0600288900900623221D210095
:104510002800FEF784F830820620019000200090E9
:10452000E37A221D2100280002F09AF82800FDF706
:104530007FFC73BDF0B583B00400A76F002F00D1DE
:10454000676F002F36D0002215210120FDF75AFA9F
:104550000500002D2ED06889142809D20FF2D4034B
:1045600040F2B9320FF264210FF24C00FEF7FAF874
:1045700038694368002229002000FFF719FA060075
:104580006868B96809780175288900900623221D9A
:1045900021002800FEF743F8308206200190002019
:1045A0000090E37A221D2100280002F059F828002B
:1045B000FDF73EFCF7BD0000417373657274696FCF
:1045C0006E2022257322206661696C656420617407
:1045D000206C696E6520256420696E2025730A00B1
:1045E0007463705F656E71756575653A207061639F
:1045F0006B6574206E65656473207061796C6F61A2
:10460000642C206F7074696F6E732C206F7220534E
:10461000594E2F46494E202870726F6772616D6D3A
:1046200065722076696F6C61746573204150492909
:1046300000000000443A5CB0D9B6C8D4C6CDACB2D4
:10464000BDC5CC5C6769746875625C777061393030
:10465000302D636F6D5C636F6DB0E5B3CCD0F25CF1
:104660006C7749505C7372635C636F72655C7463F2
:10467000705F6F75742E63007463705F656E717523
:104680006575653A206C656E20213D2030207C7C6C
:1046900020617267203D3D204E554C4C20287072A1
:1046A0006F6772616D6D65722076696F6C6174659C
:1046B00073204150492900007463705F656E717505
:1046C0006575653A207062756673206F6E2071752E
:1046D000657565203D3E206174206C6561737420B2
:1046E0006F6E65207175657565206E6F6E2D656DD9
:1046F000707479007463705F656E71756575653A85
:10470000206E6F207062756673206F6E2071756504
:104710007565203D3E20626F746820717565756512
:104720007320656D707479007573656720213D2075
:104730004E554C4C00000000636865636B20746844
:10474000617420666972737420706275662063619B
:104750006E20686F6C642074686520636F6D706C88
:10476000657465207365676C656E000070627566C0
:104770005F686561646572206661696C65640A00E2
:104780007A65726F2D6C656E6774682070627566ED
:10479000000000007463705F656E71756575653A41
:1047A0002076616C6964207175657565206C656E35
:1047B00067746800525354206E6F7420657870657A
:1047C00063746564206865726521000063686563D1
:1047D0006B207468617420666972737420706275EE
:1047E000662063616E20686F6C64207374727563F9
:1047F00074207463705F68647200000080B5FDF718
:10480000C3FF7A480068002803D17948006800286F
:1048100005D000227749FA2002F011F802E076482C
:104820000021016001BD80B57348006800280FD1E8
:104830006E480068002803D16D480068002807D042
:104840006D480121016000226A49FA2001F0F7FF5A
:1048500001BD80B502F0ECF8002268494FF47A708F
:1048600001F0EDFF01BD80B502F056FD0022644964
:1048700041F2883001F0E3FF01BD80B503F003FC95
:10488000002260494FF47A7001F0D9FF01BD80B574
:1048900000225A494FF47A7001F0D1FF00225849A2
:1048A00041F2883001F0CBFF002256494FF47A7074
:1048B00001F0C5FF5448006800280CD05348006838
:1048C00051490968884706E000988068001D0099F2
:1048D00089680968884700A94D48006801F038FFD9
:1048E000009800780028EFD002281CD003D30428B9
:1048F00030D022D339E00098C06890F82A008006B2
:1049000006D50098C1680098806803F049FA05E070
:104910000098C1680098806801F00EFD0099092098
:10492000FEF79DFFD7E70098C0680099896888471F
:1049300000990820FEF793FFCDE7009802690098E0
:10494000C1680098806801F07AFF00990820FEF79E
:1049500086FFC0E7009801690098C06801F0CAFFAF
:1049600000990820FEF77BFFB5E7B4E770B50400B7
:104970000D002748006800281CD00920FEF741FFE1
:104980000600002E02D15FF0FF3015E001203070EC
:10499000B460F56031001E48006803F05CFE00283A
:1049A00006D031000920FEF75AFF5FF0FF3003E028
:1049B000002001E07FF0080070BD38B504000D0054
:1049C00003F0F6FF1048046010480560142003F05F
:1049D00003FE0F490860012000904FF496730022F7
:1049E0000C490FF2340003F03EFF31BDE8EB00202C
:1049F000ECEB0020FD47000818EC002053480008AD
:104A0000674800087B4800080CEC002010EC0020F0
:104A100014EC00208F48000874637069705F74683C
:104A2000726561640000000010B50400DFF8F40452
:104A30000068844208D20FF26C53E5220FF24C5109
:104A40000FF22050FDF78EFEDFF8DC040068844290
:104A500008D30FF25053E6220FF288510FF20450A0
:104A6000FDF780FE2079002808D00FF23853E722A6
:104A70000FF28C510FF2EC40FDF774FE208842F2E9
:104A80000101884208D30FF21C53EA220FF28C5125
:104A90000FF2D040FDF766FE2088DFF88814096821
:104AA000401884421BD00179002918D1DFF878140E
:104AB0000968884213D0DFF874140968814202D172
:104AC000DFF868140C60018821800088DFF8541436
:104AD00009684018DFF84C140968611A4180608841
:104AE000DFF8401409684018A04216D00179002967
:104AF00013D1DFF838140968A14202D1DFF82C1471
:104B00000860218801802188DFF81824126889183C
:104B1000DFF810241268801A488010BD80B5DFF8D5
:104B2000100480088000DFF8FC130860DFF8F4034D
:104B300000684FF400510180002141800021017183
:104B4000DFF8E003006810F50050DFF8DC130860C0
:104B5000DFF8D403006801210171DFF8CC0300689D
:104B60004FF400510180DFF8C00300684FF400519A
:104B70004180012003F0D2FDDFF8B8130860DFF8B0
:104B8000AC03DFF8A0130968016001BD10B5040093
:104B9000002C4FD014F00300002809D00FF204437A
:104BA0004FF499720FF2A0410FF2B830FDF7DAFD21
:104BB000DFF870030068844204D3DFF86C030068F8
:104BC000844209D30FF2DC334FF49A720FF29C4106
:104BD0000FF29030FDF7C6FDDFF84803006884420D
:104BE00004D3DFF844030068844200D322E00021AC
:104BF000DFF84003006803F0A4FD083C207900289A
:104C000009D10FF2A03340F245120FF278410FF2B2
:104C10005430FDF7A7FD00202071C448006884428D
:104C200001D2C24804602000FFF7FEFEC1480068C0
:104C300003F0C4FD10BD2DE9F04104000D00E81C97
:104C40004FF6FC7111EA0005ADB20C2D00D20C2517
:104C500042F20100ADB2854201D3002096E0B14896
:104C60000068844203D3B0480068844209D30FF23D
:104C700034334FF4BD720FF220410FF2E820FDF7FC
:104C800071FDA8480068844203D3A74800688442A5
:104C900001D320007AE0B4F10806A2480068371A70
:104CA0003088BFB2C01BB0F108081FFA88F8ADB257
:104CB000A84509D20FF2EC234FF4C6720FF2F4317B
:104CC0000FF2A020FDF74EFD1FFA88F8ADB2A845FF
:104CD00001D200205AE0ADB21FFA88F8454501D153
:104CE000200053E000219348006803F02AFD30883B
:104CF0008C4909684218107900281FD11088E919D9
:104D000008318A4B1B68934205D189B2854A1268E3
:104D10008A18864B1A6089B2824A12688A18002360
:104D200013711080578031801088B0F5005F28D053
:104D300010887C4A12688018418022E01FFA88F8A7
:104D4000ADB215F1140080451BD3E81910F108012C
:104D500089B2744800680A1874480068824201D217
:104D600072480260002010713088108057803180B6
:104D70001088B0F5005F04D010886A4A1268801865
:104D800041806C48006803F019FD2000BDE8F08107
:104D900038B50400A4B2002C01D10020C1E0E01C11
:104DA0004FF6FC7111EA0004A4B20C2C00D20C24C2
:104DB00042F20100A4B2844201D30020B1E00021FC
:104DC0005C48006803F0BDFC584800685549096814
:104DD000401A03E080B253490968405A80B2A4B235
:104DE000D4F50051884280F2978080B24D4909681D
:104DF000451829790029EDD1298880B2091A083986
:104E0000A4B2A142E6D3298880B2091A0839A4B213
:104E100014F11402914217D32118083189B2414A82
:104E200012688A18002313712B8813805080298000
:104E3000012028711088B0F5005F07D01088394A2A
:104E400012688018418001E001202871374800680D
:104E5000854228D107E03548006800883149096853
:104E6000401832490860314800680079002805D0B0
:104E70002E4800682C4909688842ECD12B4800680C
:104E80002949096888420ED028480068007900281E
:104E900009D00FF210134FF412720FF23C210FF2EF
:104EA000C400FDF75FFC2348006803F087FC1E4840
:104EB0000068A4B261190831884209D20FF2E403F4
:104EC0004FF413720FF22C210FF29800FDF74AFCF9
:104ED00015F108000421B0FBF1F202FB1102002AD7
:104EE00009D00FF2C00340F24E220FF238210FF228
:104EF0007400FDF737FC15F00300002809D00FF20D
:104F0000A4034FF414720FF24C210FF25800FDF776
:104F100029FC15F1080004E00648006803F04EFC87
:104F2000002032BD60EB002064EB002068EB002025
:104F3000034A00206CEB002070B504000D0005FB57
:104F400004F080B2FFF724FF0600002E07D0A4B2C1
:104F5000ADB205FB04F20021300001F089F9300008
:104F600070BD0000417373657274696F6E202225F5
:104F70007322206661696C6564206174206C696EBF
:104F80006520256420696E2025730A00706C7567A2
:104F90005F686F6C65733A206D656D203E3D2072D1
:104FA000616D0000443A5CB0D9B6C8D4C6CDACB28D
:104FB000BDC5CC5C6769746875625C7770613930B7
:104FC000302D636F6D5C636F6DB0E5B3CCD0F25C78
:104FD0006C7749505C7372635C636F72655C6D657E
:104FE0006D2E6300706C75675F686F6C65733A2037
:104FF0006D656D203C2072616D5F656E6400000020
:10500000706C75675F686F6C65733A206D656D2DA8
:105010003E75736564203D3D20300000706C7567FF
:105020005F686F6C65733A206D656D2D3E6E6578B7
:1050300074203C3D204D454D5F53495A455F414CDE
:1050400049474E45440000006D656D5F66726565B9
:105050003A2073616E69747920636865636B2061BF
:105060006C69676E6D656E74000000006D656D5F44
:10507000667265653A206C6567616C206D656D6F61
:10508000727900006D656D5F667265653A206D65C9
:105090006D2D3E75736564006D656D5F7265616C45
:1050A0006C6F633A206C6567616C206D656D6F7223
:1050B000790000006D656D5F7265616C6C6F6320D7
:1050C00063616E206F6E6C7920736872696E6B20FD
:1050D0006D656D6F727900006D656D5F6D616C6CF3
:1050E0006F633A20216C667265652D3E7573656449
:1050F000000000006D656D5F6D616C6C6F633A2040
:10510000616C6C6F6361746564206D656D6F72793D
:10511000206E6F742061626F76652072616D5F65CD
:105120006E642E006D656D5F6D616C6C6F633A200F
:10513000616C6C6F6361746564206D656D6F72790D
:105140002070726F7065726C7920616C69676E6532
:10515000642E00006D656D5F6D616C6C6F633A204D
:1051600073616E69747920636865636B20616C6933
:10517000676E6D656E74000010B50400200001F0CC
:105180003FF8200010BDFEE7FEE7FEE7FEE7FEE782
:10519000FEE770472DE9F04FA5B017461C460FF605
:1051A0009015D5E90023CDE9122303AD6860A9600D
:1051B0000020E86214AE6FF000484FF0FF3900E0C5
:1051C00057440020ADF8020012AB4A4639460DF1B3
:1051D000020003F0F9FB8246BAF1010F08DA3878D1
:1051E000B0F1010A6AEB0A0A6FEA0A004FEAD07AC4
:1051F000BDF8020025280CBFAAF101025246012A7F
:1052000009DB394602A800F0D3FF002803D5484641
:1052100025B0BDE8F08FBDF80200252807D1002099
:105220006861A861E86128626862A86205E00028F8
:10523000C6D1E86AECE740F0010017F8011F202909
:10524000F9D023290DD02B2904D02D2906D03029BF
:105250000AD00CE040F0020080B2EEE740F004001B
:10526000FAE740F00800F7E740F01000F4E72A29D9
:105270000DD12268111D216011686963002904D5D0
:105280004942696340F0040080B27F1C12E00021B3
:10529000696309E0696B414505D001EB810302EBCD
:1052A0004301303969637F1C3A78A2F13001C9B2F9
:1052B0000A29EFD339782E2918BFC5F830901DD1AF
:1052C00017F8011F2A2906D12268111D21601168D3
:1052D00029637F1C12E00021296309E0296B414505
:1052E00005D001EB810302EB4301303929637F1CB8
:1052F0003A78A2F13001C9B20A29EFD32887397868
:105300000FF64C4003F070FB08B117F8010B8DF855
:1053100046009DF84600682804D1387868280AD1EC
:10532000622005E06C2806D138786C2803D1712002
:105330008DF846007F1C14A828613A78104625385D
:1053400027D01C3800F08780001F022840F283809D
:10535000133800F0AC8009387DD0801E00F0448105
:10536000401E00F0ED80401E022874D9001F00F09E
:10537000E780401F44D0401E00F09980401E31D08D
:10538000C01E0CD0801E00F09280C01E00F08F80E6
:1053900043E16869411C69612521815547E19DF818
:1053A00046006C28216813D0081D20600868E8605A
:1053B0002A6B002A08D4002103F022FB00281ABF20
:1053C000E968401A286B01E003F046FBA8612EE172
:1053D000081D2060096802A800F0B9F9002840F112
:1053E000268114E72168081D206008680021CDE9A6
:1053F000020114A8E860782102A800F009FB16E178
:105400009DF8460062281FD068280DD06A2812D067
:105410006C2802D071280ED074282168081D2060E5
:105420000868E96A016002E1E86A2268111D2160EA
:1054300011680880FBE0E86AC11723681A1D226022
:105440001A68C2E90001F2E0E86A2268111D2160D1
:1054500011680870EBE02068C01D20F00700206094
:10546000034603F108002060D3E90001CDE9020101
:10547000002904D56869411C69612D210DE0288F40
:10548000810704D56869411C69612B2105E0C007CB
:1054900004D56869411C696120218155686914A996
:1054A0004018E860114602A800F046FBBFE09DF8F6
:1054B00046006C280FD0712801D06A280BD12068D3
:1054C000C01D20F007002060034603F108002060A3
:1054D000D3E9000104E02168081D2060086800216C
:1054E000CDE902019DF8460068280CD0622806D05C
:1054F000742801D07A280CD1DDE9020106E0DDE94B
:105500000201C0B202E0DDE9020180B20021CDE972
:10551000020195F83800000760D5DDE9020109B9FC
:1055200000285BD042F02000782857D16869411CE0
:105530006961302181556869411C696182554DE07E
:105540009DF8460062280CD0682810D06A281AD02E
:105550006C2824D0712816D0742820D07A280CD03A
:105560001DE02168081D206091F900001BE0216802
:10557000081D2060B1F9000015E02168081D2060B9
:105580000868002110E02068C01D20F0070020609E
:10559000034603F108002060D3E9000104E021681C
:1055A000081D20600868C117CDE90201DDE902018C
:1055B00000290EDB288F810704D56869411C6961C9
:1055C0002B210AE0C00709D56869411C69612021C7
:1055D00003E06869411C69612D218155686914A93E
:1055E0004018E860114607E79DF846006C2807D090
:1055F0006869411C69612268111D21601168CCE64F
:105600002168081D20600868ADF804000020ADF88E
:105610000600C5F8309001A9DDE66869411C6961A2
:10562000252181551AB16869411C696182557F1C29
:10563000686B6969401A296A401AA969401A696A3F
:10564000401AE969401AA96AA0EB010A95F83800E6
:10565000400711D420208DF80000BAF1010F0BDBB8
:10566000D346012200A902A800F0A2FD00287FF481
:10567000CEADBBF1010BF4D16A6914A902A800F008
:1056800097FD00287FF4C3AD30208DF80000D5F8D9
:1056900020B0BBF1010F0ADB012200A902A800F033
:1056A00087FD00287FF4B3ADBBF1010BF4D1AA69EB
:1056B000E96802A800F07CFD00287FF4A8AD302046
:1056C0008DF80000D5F824B0BBF1010F0ADB0122F0
:1056D00000A902A800F06CFD00287FF498ADBBF192
:1056E000010BF4D1EA69A869E968411802A800F041
:1056F0005FFD00287FF48BAD30208DF80000D5F8D9
:1057000028B0BBF1010F0ADB012200A902A800F0BA
:105710004FFD00287FF47BADBBF1010BF4D195F870
:10572000380040077FF54DAD20208DF80000BAF11C
:10573000010FFFF646AD012200A902A800F038FDD6
:1057400000287FF464ADBAF1010AF4D139E52DE9FE
:10575000F04F93B007460C46D7F83490B9F1000FDC
:1057600048BF6FF0004903F092F9B96B00EB010AF2
:105770000FF67022D2E90001CDE9010197F83C0053
:10578000400702D4BAF1410F05D20DF10C0B4FF0D6
:10579000400A00250AE0504603F089FF5FEA000B4B
:1057A000F7D14FF0FF3030E1A9EB0809B9F1010F53
:1057B000C0F2A08001AA21880DF1010004F0E2FAF4
:1057C0005FEA000804D4208828B9B8F1010802D59E
:1057D0004FF0FF3512E1C145C0F28C80B86908EB8B
:1057E00000018A4577D2BD634042796A401AF9695F
:1057F000401AB96A401A396A401AF96A451A97F884
:105800003C0040070ED420208DF80000012D09DB5C
:105810002E46012200A9384600F0CAFC0028D7D144
:10582000761EF6D1BA695946384600F0C1FC002808
:10583000CED130208DF800007E6A012E08DB0122D7
:1058400000A9384600F0B4FC0028C1D1761EF6D17C
:10585000FA693969384600F0ABFC0028B8D130202D
:105860008DF80000BE6A012E08DB012200A938462F
:1058700000F09EFC0028ABD1761EF6D13A6AF8699A
:1058800039694118384600F093FC0028A0D1302037
:105890008DF80000FE6A012E08DB012200A93846BF
:1058A00000F086FC002893D1761EF6D197F83C00D4
:1058B00040070ED520208DF80000012D09DB0122C4
:1058C00000A9384600F074FC00287FF481AF6D1EFB
:1058D000F5D10025BD6142460DF10101B86958447A
:1058E00000F08EFCB8694044B86134F8020B00281F
:1058F0007FF45AAFB86BB969401A796A401AF969EE
:10590000401AB96A401A396A401AF96AA0EB0108CC
:1059100097F83C00400710D420208DF80000B8F123
:10592000010F0ADB4446012200A9384600F040FC82
:1059300000287FF44DAF641EF5D1BA695946384648
:1059400000F036FC00287FF443AF30208DF80000D3
:105950007C6A012C09DB012200A9384600F028FCF2
:1059600000287FF435AF641EF5D1FA6939693846ED
:1059700000F01EFC00287FF42BAF30208DF80000D3
:10598000BC6A012C09DB012200A9384600F010FC9A
:1059900000287FF41DAF641EF5D13A6AF8693969B1
:1059A0004118384600F004FC00287FF411AF302085
:1059B0008DF80000FC6A012C09DB012200A93846A1
:1059C00000F0F6FB00287FF403AF641EF5D197F8D2
:1059D0003C00400710D520208DF80000B8F1010FE1
:1059E0000ADB012200A9384600F0E2FB00287FF420
:1059F000EFAEB8F10108F4D1BD61BD6303A88345E2
:105A00001CBF584603F07BFF284613B0BDE8F08F5B
:105A10002DE9FA4786B00546686900909DF81800A0
:105A20006F2808BF082705D040F02000782814BF51
:105A30000A2710273C24D5E90001064689469DF82F
:105A40001820642A01D0692A04D1002902DA76429A
:105A500069EB4909B9F1000F0DD166B9686B50B90E
:105A6000082F3FD195F83C0000073BD5641E0098F5
:105A70003021215436E0A4F101084446F817CDE95D
:105A8000047030464946DDE9042304F093F9CDE97A
:105A90000201B246DDE90223DDE90401A0FB02694F
:105AA0005046801B3030C0B23A2803D39DF81810FE
:105AB00051390818009908F80100DDE90269B9F1C7
:105AC000000F00D126B12869009961188842D2D30D
:105AD000082F07D195F83C00000703D50098205CFB
